S01700004763634170706C69636174696F6E312E737265635B
S11300000C942A000C943F000C943F000C943F0085
S11300100C943F000C943F000C943F000C943F0060
S11300200C943F000C943F000C943F000C943F0050
S11300300C943F000C943F000C943F000C943F0040
S11300400C943F000C943F000C943F000C943F0030
S11300500C943F0011241FBECFE5D8E0DEBFCDBF16
S113006010E0A0E6B0E0E0EFF4E002C005900D92ED
S1130070A437B107D9F70E9435020C9476020C9488
S113008000004423B9F1413009F06BC0813089F09C
S113009028F08230C9F0833011F108952AB381E049
S11300A090E002C0880F991F6A95E2F7822B8ABB01
S11300B0089527B381E090E002C0880F991F6A95E4
S11300C0E2F7822B87BB089524B381E090E002C05D
S11300D0880F991F6A95E2F7822B84BB089521B398
S11300E081E090E002C0880F991F6A95E2F7822BA5
S11300F081BB0895813091F028F08230D9F08330AB
S113010029F108952AB381E090E002C0880F991F75
S11301106A95E2F7809582238ABB089527B381E02C
S113012090E002C0880F991F6A95E2F780958223B8
S113013087BB089524B381E090E002C0880F991F23
S11301406A95E2F78095822384BB089521B381E008
S113015090E002C0880F991F6A95E2F78095822388
S113016081BB08954423B9F1413009F06BC081305B
S113017089F028F08230C9F0833011F108952BB34F
S113018081E090E002C0880F991F6A95E2F7822B04
S11301908BBB089528B381E090E002C0880F991FBB
S11301A06A95E2F7822B88BB089525B381E090E03D
S11301B002C0880F991F6A95E2F7822B85BB0895C8
S11301C022B381E090E002C0880F991F6A95E2F79C
S11301D0822B82BB0895813091F028F08230D9F0CF
S11301E0833029F108952BB381E090E002C0880F99
S11301F0991F6A95E2F7809582238BBB089528B3F3
S113020081E090E002C0880F991F6A95E2F780951B
S1130210822388BB089525B381E090E002C0880F53
S1130220991F6A95E2F78095822385BB089522B3CE
S113023081E090E002C0880F991F6A95E2F78095EB
S1130240822382BB0895CF93C82F40E062E081E00F
S11302500E94B20040E061E081E00E94B20040E010
S113026063E081E00E94B2008C2F807F8BBB41E071
S113027063E081E00E94B20087E893E10197F1F71F
S113028000C0000040E063E081E00E94B20083EC23
S113029099E00197F1F700C00000C295C07FCBBB85
S11302A041E063E081E00E94B20087E893E10197B6
S11302B0F1F700C0000040E063E081E00E94B2007A
S11302C083EC99E00197F1F700C00000CF91089505
S11302D041E061E081E00E94410041E062E081E0B0
S11302E00E94410041E063E081E00E94410041E05E
S11302F064E080E00E94410041E065E080E00E940B
S1130300410041E066E080E00E94410041E067E096
S113031080E00E9441008FE493EC0197F1F700C064
S1130320000083E30E94230182E30E94230188E208
S11303300E9423018CE00E94230181E00E9423019A
S113034082E00E94230186E00E9423018FE097E26D
S11303500197F1F700C000000895CF93C82F40E043
S113036062E081E00E94B20041E061E081E00E942D
S1130370B20040E063E081E00E94B2008C2F807FF5
S11303808BBB41E063E081E00E94B20087E893E127
S11303900197F1F700C0000040E063E081E00E94B3
S11303A0B20083EC99E00197F1F700C00000C29518
S11303B0C07FCBBB41E063E081E00E94B20087E8EC
S11303C093E10197F1F700C0000040E063E081E0B1
S11303D00E94B20083EC99E00197F1F700C000009D
S11303E0CF9108950F931F93CF93FC0180818823AD
S11303F059F08F01C0E00E94AD01CF5FF801EC0F0E
S1130400F11D80818111F7CFCF911F910F91089534
S1130410CF93DF9300D0CDB7DEB790E8998390EC0B
S11304209A83FE01E80FF11D8181860F0E9423014A
S11304300F900F90DF91CF9108950F931F93CF9357
S1130440DF93EC01892B61F00AE010E0CE01B801E2
S11304500E944E02EB01805D0E94AD012097B1F72E
S1130460DF91CF911F910F9108950E94680160E080
S113047080E00E94080280E690E00E94F20160E0C1
S113048081E00E9408028EE29BEF0E941D0281E738
S113049090E00E94F20180E090E0089597FB072E1F
S11304A016F4009407D077FD09D00E94620207FC7D
S11304B005D03EF4909581959F4F08957095619570
S11304C07F4F0895AA1BBB1B51E107C0AA1FBB1F86
S11304D0A617B70710F0A61BB70B881F991F5A95CC
S11304E0A9F780959095BC01CD010895F894FFCFAC
S11304F06E756D206F662073616C617279203D208A
S107050000240000CF
S9030000FC
