S01700004763634170706C69636174696F6E312E737265635B
S11300000C942A000C9434000C9434000C943400A6
S11300100C9434000C9434000C9434000C9434008C
S11300200C9434000C9434000C9434000C9434007C
S11300300C9434000C9434000C9434000C9434006C
S11300400C9434000C9434000C9434000C9434005C
S11300500C94340011241FBECFE5D8E0DEBFCDBF21
S11300600E9429020C945A020C940000442379F152
S1130070413009F05FC0813079F028F08230A9F076
S11300808330E1F008952AB381E090E001C0880F45
S11300906A95EAF7822B2CC027B381E090E001C077
S11300A0880F6A95EAF7822B2EC024B381E090E092
S11300B001C0880F6A95EAF7822B30C021B381E032
S11300C090E001C0880F6A95EAF7822B32C0813034
S11300D089F028F08230C9F0833011F108952AB3F1
S11300E081E090E001C0880F6A95EAF78095822349
S11300F08ABB089527B381E090E001C0880F6A9518
S1130100EAF78095822387BB089524B381E090E0C9
S113011001C0880F6A95EAF78095822384BB08950D
S113012021B381E090E001C0880F6A95EAF78095D9
S1130130822381BB0895442379F1413009F05FC0E3
S1130140813079F028F08230A9F08330E1F008950D
S11301502BB381E090E001C0880F6A95EAF7822B07
S11301602CC028B381E090E001C0880F6A95EAF7BB
S1130170822B2EC025B381E090E001C0880F6A95E0
S1130180EAF7822B30C022B381E090E001C0880FEF
S11301906A95EAF7822B32C0813089F028F08230E8
S11301A0C9F0833011F108952BB381E090E001C0D0
S11301B0880F6A95EAF7809582238BBB089528B34C
S11301C081E090E001C0880F6A95EAF78095822368
S11301D088BB089525B381E090E001C0880F6A953B
S11301E0EAF78095822385BB089522B381E090E0ED
S11301F001C0880F6A95EAF78095822382BB08952F
S1130200CF93C82F40E062E081E00E949B0040E071
S113021061E081E00E949B0040E063E081E00E9495
S11302209B008C2F807F8BBB41E063E081E00E94C8
S11302309B0087E893E10197F1F700C0000040E0DC
S113024063E081E00E949B0083EC99E00197F1F761
S113025000C00000C295C07FCBBB41E063E081E0F9
S11302600E949B0087E893E10197F1F700C000002A
S113027040E063E081E00E949B0083EC99E00197F9
S1130280F1F700C00000CF91089541E061E081E002
S11302900E94360041E062E081E00E94360041E0C5
S11302A063E081E00E94360041E064E080E00E9467
S11302B0360041E065E080E00E94360041E066E0FF
S11302C080E00E94360041E067E080E00E94360052
S11302D08FE493EC0197F1F700C0000083E30E94E0
S11302E0000182E30E94000188E20E9400018CE088
S11302F00E94000181E00E94000182E00E9400014E
S113030086E00E9400018FE097E20197F1F700C0B8
S113031000000895CF93C82F40E062E081E00E947E
S11303209B0041E061E081E00E949B0040E063E0CB
S113033081E00E949B008C2F807F8BBB41E063E0B7
S113034081E00E949B0087E893E10197F1F700C0E8
S1130350000040E063E081E00E949B0083EC99E0B0
S11303600197F1F700C00000C295C07FCBBB41E00C
S113037063E081E00E949B0087E893E10197F1F735
S113038000C0000040E063E081E00E949B0083EC39
S113039099E00197F1F700C00000CF910895CF9242
S11303A0DF92EF92FF920F931F93CF93DF9300D0CE
S11303B000D01F92CDB7DEB7FE01319625E0DF01F4
S11303C01D922A95E9F797FF03C08C011F7B02C099
S11303D000E010E024E03AE0E32EF12C0097E9F08D
S11303E00115110569F06F01C20ED11C27FDDA94C5
S11303F0B7010E943202D6018C93CB01215081F7C0
S11304006F01C20ED11C27FDDA94B7010E9432029B
S1130410D6018C93CB012150E1CF8F017E01B6E050
S1130420EB0EF11CF80181918F01805D0E948A011D
S1130430E016F106B9F70F900F900F900F900F9000
S1130440DF91CF911F910F91FF90EF90DF90CF90AC
S113045008950E94450182ED94E00E94CF0180E05E
S113046090E0089597FB072E16F4009407D077FDCB
S113047009D00E94460207FC05D03EF49095819570
S11304809F4F0895709561957F4F0895AA1BBB1BDC
S113049051E107C0AA1FBB1FA617B70710F0A61B80
S11304A0B70B881F991F5A95A9F780959095BC01A1
S10B04B0CD010895F894FFCF7B
S9030000FC
